{
  "abi": [
    {
      "anonymous": false,
      "inputs": [
        {
          "indexed": true,
          "internalType": "uint256",
          "name": "lobbyId",
          "type": "uint256"
        },
        {
          "indexed": false,
          "internalType": "uint256",
          "name": "startTimestamp",
          "type": "uint256"
        },
        {
          "indexed": false,
          "internalType": "uint256",
          "name": "duration",
          "type": "uint256"
        }
      ],
      "name": "LobbyCreated",
      "type": "event"
    },
    {
      "anonymous": false,
      "inputs": [
        {
          "indexed": true,
          "internalType": "uint256",
          "name": "lobbyId",
          "type": "uint256"
        },
        {
          "indexed": false,
          "internalType": "uint256",
          "name": "winner",
          "type": "uint256"
        }
      ],
      "name": "LobbySettled",
      "type": "event"
    },
    {
      "anonymous": false,
      "inputs": [
        {
          "indexed": true,
          "internalType": "uint256",
          "name": "lobbyId",
          "type": "uint256"
        },
        {
          "indexed": true,
          "internalType": "address",
          "name": "account",
          "type": "address"
        },
        {
          "indexed": false,
          "internalType": "uint256",
          "name": "timestamp",
          "type": "uint256"
        },
        {
          "indexed": false,
          "internalType": "uint256",
          "name": "unit",
          "type": "uint256"
        },
        {
          "indexed": false,
          "internalType": "uint256",
          "name": "newGoalX",
          "type": "uint256"
        },
        {
          "indexed": false,
          "internalType": "uint256",
          "name": "newGoalY",
          "type": "uint256"
        }
      ],
      "name": "Move",
      "type": "event"
    },
    {
      "inputs": [
        {
          "internalType": "uint256",
          "name": "startTimestamp",
          "type": "uint256"
        },
        {
          "internalType": "uint256",
          "name": "duration",
          "type": "uint256"
        },
        {
          "internalType": "address[2]",
          "name": "players",
          "type": "address[2]"
        }
      ],
      "name": "createLobby",
      "outputs": [],
      "stateMutability": "nonpayable",
      "type": "function"
    },
    {
      "inputs": [
        {
          "internalType": "uint256",
          "name": "index",
          "type": "uint256"
        }
      ],
      "name": "getPlayers",
      "outputs": [
        {
          "internalType": "address[2]",
          "name": "",
          "type": "address[2]"
        }
      ],
      "stateMutability": "view",
      "type": "function"
    },
    {
      "inputs": [
        {
          "internalType": "uint256",
          "name": "",
          "type": "uint256"
        }
      ],
      "name": "lobbies",
      "outputs": [
        {
          "internalType": "uint256",
          "name": "startTimestamp",
          "type": "uint256"
        },
        {
          "internalType": "uint256",
          "name": "duration",
          "type": "uint256"
        },
        {
          "internalType": "uint256",
          "name": "winner",
          "type": "uint256"
        },
        {
          "internalType": "bool",
          "name": "withdrawn",
          "type": "bool"
        },
        {
          "internalType": "bytes32",
          "name": "eventHash",
          "type": "bytes32"
        },
        {
          "internalType": "uint256",
          "name": "eventCount",
          "type": "uint256"
        }
      ],
      "stateMutability": "view",
      "type": "function"
    },
    {
      "inputs": [
        {
          "internalType": "uint256",
          "name": "lobbyId",
          "type": "uint256"
        },
        {
          "internalType": "uint256",
          "name": "unit",
          "type": "uint256"
        },
        {
          "internalType": "uint256",
          "name": "newGoalX",
          "type": "uint256"
        },
        {
          "internalType": "uint256",
          "name": "newGoalY",
          "type": "uint256"
        }
      ],
      "name": "move",
      "outputs": [],
      "stateMutability": "nonpayable",
      "type": "function"
    },
    {
      "inputs": [
        {
          "internalType": "uint256",
          "name": "lobbyId",
          "type": "uint256"
        },
        {
          "internalType": "bytes",
          "name": "proof",
          "type": "bytes"
        }
      ],
      "name": "settle",
      "outputs": [],
      "stateMutability": "nonpayable",
      "type": "function"
    },
    {
      "inputs": [
        {
          "internalType": "bytes",
          "name": "",
          "type": "bytes"
        }
      ],
      "name": "verify",
      "outputs": [
        {
          "internalType": "bool",
          "name": "result",
          "type": "bool"
        }
      ],
      "stateMutability": "view",
      "type": "function"
    }
  ],
  "bytecode": {
    "object": "0x608060405234801561001057600080fd5b5061456d806100206000396000f3fe608060405234801561001057600080fd5b50600436106100725760003560e01c80638dafb2b3116100505780638dafb2b3146100f75780638e760afe1461010a578063a25947031461012d57600080fd5b806339c2ebb914610077578063460e20491461008c5780636e8fb4c6146100b5575b600080fd5b61008a610085366004614122565b610140565b005b61009f61009a3660046141c1565b61035d565b6040516100ac91906141da565b60405180910390f35b6100c86100c33660046141c1565b6103d4565b6040805196875260208701959095529385019290925215156060840152608083015260a082015260c0016100ac565b61008a610105366004614221565b610420565b61011d610118366004614253565b61055c565b60405190151581526020016100ac565b61008a61013b3660046142c5565b6107e8565b600080838154811061015457610154614302565b9060005260206000209060080201905060008280602001905181019061017a9190614331565b516001830154835491925061018e916143d1565b42116101e15760405162461bcd60e51b815260206004820152601c60248201527f4c6f626279206973206e6f7420726561647920746f20736574746c650000000060448201526064015b60405180910390fd5b816004015481146102345760405162461bcd60e51b815260206004820152601360248201527f496e636f7272656374206576656e74486173680000000000000000000000000060448201526064016101d8565b6040517f8e760afe0000000000000000000000000000000000000000000000000000000081523090638e760afe906102709086906004016143e9565b602060405180830381865afa15801561028d573d6000803e3d6000fd5b505050506040513d601f19601f820116820180604052508101906102b1919061443e565b6102fd5760405162461bcd60e51b815260206004820152600d60248201527f496e76616c69642070726f6f660000000000000000000000000000000000000060448201526064016101d8565b6000838060200190518101906103139190614467565b6020908101516002850181905560405181815290925086917f4d480dce97cfbf001c338ec585745245f964b164bcd1f28c9bfdee0f28523775910160405180910390a25050505050565b610365613b20565b6000828154811061037857610378614302565b600091825260209091206040805180820191829052926008029091016006019060029082845b815473ffffffffffffffffffffffffffffffffffffffff16815260019091019060200180831161039e5750505050509050919050565b600081815481106103e457600080fd5b60009182526020909120600890910201805460018201546002830154600384015460048501546005909501549395509193909260ff9092169186565b600080858154811061043457610434614302565b90600052602060002090600802019050600a8160050154106104985760405162461bcd60e51b815260206004820152601c60248201527f4d6178206e756d626572206f66206576656e747320726561636865640000000060448201526064016101d8565b6005810180549060006104aa836144e7565b9190505550818385423373ffffffffffffffffffffffffffffffffffffffff16856004015460001c6104dc91906143d1565b6104e691906143d1565b6104f091906143d1565b6104fa91906143d1565b61050491906143d1565b6004820155604080514281526020810186905290810184905260608101839052339086907fc8412c990bffcebbcf6247f14e0ca868bb56d918c5bbe76b3d10bd416bc7633a9060800160405180910390a35050505050565b6000806105676109d1565b6020810151909150600061057b8284610ff7565b6040805160208101909152600081529091508351602085015161059f9183916113dc565b61062660405180610220016040528060008152602001600081526020016000815260200160008152602001600081526020016000815260200160008152602001600081526020016000815260200160008152602001600081526020016000815260200160008152602001600081526020016000815260200160008152602001600081525090565b60208501516106389083908390611434565b608083015182516040805191825260208084015181840152925190820152606090207f30644e72e131a029b85045b68181585d2833e84879b9709143e1f593f0000001810691830182905290825282526106b4818460a001518560c001518660e00151876101000151876114b99095949392919063ffffffff16565b6000806106c2858885611538565b6103808701829052602089015191935091506106e190859085906115c3565b6103008501516103208601518551604080519182526020808501518184015293519082015291810151606083015251608082015260a0908190207f30644e72e131a029b85045b68181585d2833e84879b9709143e1f593f0000001810691850191909152845260208301518352600061075c84838a89611712565b9050600061076c858a848a6118a0565b9050600061077a8887611dc9565b90506107898282888b8e611f81565b9a508a6107d85760405162461bcd60e51b815260206004820152600c60248201527f50726f6f66206661696c6564000000000000000000000000000000000000000060448201526064016101d8565b5050505050505050505092915050565b6107f0613b3e565b838152602081018390526040805180820182529083906002908390839080828437600092018290525060c085019390935250505460408051868152602081018690527fa89d44ec5dc402322d94d2d9f2f24eb5882c23bd04ee82b018c3c8f96ba6026d910160405180910390a26000805460018101825590805281517f290decd9548b62a8d60345a988386fc84ba6bc95484008f6362f93160ef3e563600890920291820190815560208301517f290decd9548b62a8d60345a988386fc84ba6bc95484008f6362f93160ef3e56483015560408301517f290decd9548b62a8d60345a988386fc84ba6bc95484008f6362f93160ef3e56583015560608301517f290decd9548b62a8d60345a988386fc84ba6bc95484008f6362f93160ef3e566830180547fffffffffffffffffffffffffffffffffffffffffffffffffffffffffffffff001691151591909117905560808301517f290decd9548b62a8d60345a988386fc84ba6bc95484008f6362f93160ef3e56783015560a08301517f290decd9548b62a8d60345a988386fc84ba6bc95484008f6362f93160ef3e56883015560c083015183926109c8917f290decd9548b62a8d60345a988386fc84ba6bc95484008f6362f93160ef3e569909101906002613b85565b50505050505050565b6109d9613c02565b6109e1613c02565b60206000820152600260208201527f09c532c6306b93d29678200d47c0b2a99c18d51b838eeb1d3eed4c533bb512d060408201527f2ee12bff4a2813286a8dc388cd754d9a3ef2490635eba50cb9c2e5e75080000160608201527f2724713603bfbd790aeaf3e7df25d8e7ef8f311334905b4d8c99980cf210979d60808201527f13fda24a39dd8abcabc42876d6c7477ce09d3c7edded30a5f15dec5ecd9ced6460a0820151527f1e85952bf9a300bc5134e546775a3833874d2141623da2a6fcbd1ee8028855e7602060a083015101527f037187030203323f8920aaba534ba5cbd4fa1e9392638e6e66aad69f8356bd5760c0820151527f18cbef2ec7660d83f04c31f770f8cbb4c3dc8bed33d4d95a817cbc7d7e8d8a96602060c083015101527f094362c4bd87d95cc2b67b87317bf28816e67e007463856e46a749041273397660e0820151527e5b5e47c25e67fcb3a32133d777ad43dd12c67fa0e714ce1f96ebe620a7135e602060e083015101527f0d081ef5cf5fee87bc1b7a2687f256213baa0c969aa065ddee2510e6dc45c842610100820151527f0e94b374fc9d2cb8eea7e49dccaf9a976f58a088ea017a78c5e574b45dad6067602061010083015101527f0d081ef5cf5fee87bc1b7a2687f256213baa0c969aa065ddee2510e6dc45c842610120820151527f0e94b374fc9d2cb8eea7e49dccaf9a976f58a088ea017a78c5e574b45dad6067602061012083015101527f0a84ca3fa3b4cee7cc0fe1da57e49b173436e2fa91ef65c782e662684b45f158610140820151527f2edc70b9c672663484c84c076eeae0d17ff071487aceef7aac16b74568cd9f7b602061014083015101527f0d081ef5cf5fee87bc1b7a2687f256213baa0c969aa065ddee2510e6dc45c842610160820151527f0e94b374fc9d2cb8eea7e49dccaf9a976f58a088ea017a78c5e574b45dad6067602061016083015101527f0bc991d7d16c14a449de926f064881586257cce94ac6d2afecb23c70dd0a44bd610180820151527f07b6ed0013384afcfe90914b74ff09eb761fef10b0515be08240bf35b524d905602061018083015101527f0d081ef5cf5fee87bc1b7a2687f256213baa0c969aa065ddee2510e6dc45c8426101a0820151527f0e94b374fc9d2cb8eea7e49dccaf9a976f58a088ea017a78c5e574b45dad606760206101a083015101527f0d081ef5cf5fee87bc1b7a2687f256213baa0c969aa065ddee2510e6dc45c8426101c0820151527f0e94b374fc9d2cb8eea7e49dccaf9a976f58a088ea017a78c5e574b45dad606760206101c083015101527f0d081ef5cf5fee87bc1b7a2687f256213baa0c969aa065ddee2510e6dc45c8426101e0820151527f0e94b374fc9d2cb8eea7e49dccaf9a976f58a088ea017a78c5e574b45dad606760206101e083015101527f24ab1316fc8f27e2171f08d9b9c3e5c5f72055803940ae1a4c59065f1ce31b60610200820151527f2f6da3858af1d6a94246e29bec655bdcdbb78d4f4938f2be21d7e3d01b935c6f602061020083015101527f18f16b70e9ec2afcc8ca4b707f6c949b829b9b7748be0814a67f75f14c27cdb3610220820151527f0b238b5de0a600f7c6feb7bfec118222afc6be535a5da7fb0bf1376454a6a78d602061022083015101527f0d3ed9c6da79cbaefba0994f378759384a71acdee92479d29614d9429f4184f9610240820151527f0a7d2775792080e9a50c27794e580a9b500b7e18440a2cbddf4b3fe2c10c56b6602061024083015101527f06934bf4e882713e64ca6eb4c4732be1446fe5e9779aea7588bbf7b8bbb0b32f610260820151527f12233390e13004e58d75edfe948d20e033c8ba4c7315c12ba00971ce2abc120360206102608301510152600061028082015260006102a08201527f260e01b251f6f1c7e7ff4e580791dee8ea51d87a358e038b4efe30fac09383c16102c0820151527f0118c4d5b837bcc2bc89b5b398b5974e9f5944073b32078b7e231fec938883b060206102c083015101527f04fc6369f7110fe3d25156c1bb9a72859cf2a04641f99ba4ee413c80da6a5fe460406102c083015101527f22febda3c0c0632a56475b4214e5615e11e6dd3f96e6cea2854a87d4dacc5e5560606102c083015101528091505090565b610fff613e7e565b6102808201517f30644e72e131a029b85045b68181585d2833e84879b9709143e1f593f0000001907f30644e72e131a029b85045b68181585d97816a916871ca8d3c208c16d87cfd4790600435602401908490156111ad576000866102a00151602061106b9190614501565b83019050606081013560cc90811b6040830135608890811b6020850135604490811b86350191909101929092019260e0850135811b60c0860135831b60a0870135851b608088013501010192610160860135821b610140870135841b610120880135831b610100890135010101926101e087013590921b6101c087013590921b6101a087013590911b6101808701350101016111538484604080518082019091526000808252602082015250604080518082019091527f30644e72e131a029b85045b68181585d2833e84879b9709143e1f593f0000001928390068152919006602082015290565b6103408b0152604080518082018252600080825260209182015281518083019092527f30644e72e131a029b85045b68181585d2833e84879b9709143e1f593f000000180850683528306908201526103608b015250505050505b602087028083019250508260208301350681515282823506602082510152826060830135066020820151528260408301350660208083015101528260a083013506604082015152826080830135066020604083015101528260e0830135066060820151528260c08301350660206060830151015282610120830135066080820151528261010083013506602060808301510152826101608301350660a0820151528261014083013506602060a08301510152826101a08301350660c0820151528261018083013506602060c08301510152826101e08301350660e082015152826101c083013506602060e08301510152826102208301350661010082015152826102008301350660206101008301510152836102408301350661012082015283610260830135066101408201528361028083013506610160820152836102a083013506610180820152836102c0830135066101a0820152836102e0830135066101c082015283610300830135066101e08201528361032083013506610200820152836103408301350661022082015283610360830135066102408201528361038083013506610260820152836103a083013506610280820152836103c0830135066102a0820152836103e0830135066102c082015283610400830135066102e08201528261044083013506610300820151528261042083013506602061030083015101528261048083013506610320820151528261046083013506602061032083015101525050505092915050565b60006040518360181c60208201538360101c60218201538360081c60228201538360238201538260181c60248201538260101c60258201538260081c6026820153826027820153600860209190910120909352505050565b8251604051818152600091907f30644e72e131a029b85045b68181585d2833e84879b9709143e1f593f000000190839060209081019060246004350190870261010001808284376040516020918201902085810660608b0181905260008290529097509350600192509050535060216000209081066080909501949094525050509052565b85516040805191825260208681015181840152955182820152848601516060830152935160808201528285015160a0820152915160c08301529283015160e082015291516101008301526101209091207f30644e72e131a029b85045b68181585d2833e84879b9709143e1f593f0000001810692909101919091529052565b60008060008060008060008061154e898b61228a565b9150915060008060008060006115688f8f6040015161243c565b945094509450945094506115818787878787878761252f565b809b50819c50829e50839d5050505050898f6103000181815250505050505050505060006115b384868a86868f612660565b9a92995091975050505050505050565b82516040518181527f30644e72e131a029b85045b68181585d2833e84879b9709143e1f593f0000001919060009081906102646020878102600435019190910191906101e0908390830137610200902085810660c08901819052600082905290935091506001905060205350602160002083900660e08601819052600260205350602160002083900661010086018190526003602053506021600020839006610120860181905260046020535060216000208390066101408601819052600560205350602160002083900661016086018190526006602053506021600020839006610180860181905260076020535060216000208390066101a0860181905260086020535060216000208390066101c08601819052600960205350602160009081208490066101e0870181905290600a6020535050602160002092830661020090950194909452509092525050565b60408051808201909152600080825260208201526000611734838588886126c8565b90506000611743848689612939565b905060006117518589612ff3565b9050600061175f868a613171565b6101c08801516101e089015191925090611778826133a2565b611781816133a2565b6000604051835181526020840151602082015285604082015260408160608360075afa9150875160408201526020880151606082015260408160808360065afa821691508251604082015260208301516060820152846080820152604080820160606040840160075afa8216915060408160808360065afa82169150865160408201526020870151606082015260408860808360065afa8216915050806118905760405162461bcd60e51b815260206004820152603660248201527f636f6d707574655f6c696e656172697365645f6f70656e696e675f7465726d7360448201527f2067726f7570206f7065726174696f6e73206661696c0000000000000000000060648201526084016101d8565b50949a9950505050505050505050565b60408051808201909152600080825260208201526040805160a08101909152610300850151600091907f30644e72e131a029b85045b68181585d2833e84879b9709143e1f593f00000019083906118f79083614520565b60a0870151909150611908816133a2565b805184526020810151602085015281604085015260408460608660075afa6102e08a015160c089015191965090915080611941836133a2565b8251604087015260208301516060870152848483096080870152604080870160608160075afa965060408660808860065afa60e08a01519716969250611986836133a2565b8482830991508251604087015260208301516060870152848483096080870152604080870160608160075afa8716965060408660808860065afa6101008a015197169692506119d4836133a2565b8481830991508251604087015260208301516060870152848483096080870152604080870160608160075afa8716965060408660808860065afa87169650899250611a1e836133a2565b8951604087015260208a0151606087015260408660808860065afa60a08d015160c08e01518b519990921698945090611a56856133a2565b8660018308915086828209935084516040890152602085015160608901528360808901526040808901606060408b0160075afa8916985060408860808a60065afa891698508d60e0015190508a602001519450611ab2856133a2565b86828209935084516040890152602085015160608901528360808901526040808901606060408b0160075afa8916985060408860808a60065afa891698508d610100015190508a604001519450611b08856133a2565b86828209935084516040890152602085015160608901528360808901526040808901606060408b0160075afa8916985060408860808a60065afa891698508d610120015190508a606001519450611b5e856133a2565b86828209935084516040890152602085015160608901528360808901526040808901606060408b0160075afa8916985060408860808a60065afa891698508d610140015193508c61020001519450611bb5856133a2565b84516040890152602085015160608901528360808901526040808901606060408b0160075afa8916985060408860808a60065afa891698508d610160015193508c61022001519450611c06856133a2565b84516040890152602085015160608901528360808901526040808901606060408b0160075afa8916985060408860808a60065afa891698508d610180015193508c61024001519450611c57856133a2565b84516040890152602085015160608901528360808901526040808901606060408b0160075afa8916985060408860808a60065afa891698508d6101a0015193508c61018001519450611ca8856133a2565b84516040890152602085015160608901528360808901526040808901606060408b0160075afa8916985060408860808a60065afa60408051808201909152600080825260208201529916988e6101c0015194508d6101a001519550611d0c866133a2565b855160408a0152602086015160608a01528460808a01526040808a01606060408c0160075afa8a16995060408160808b60065afa8a16995089611db75760405162461bcd60e51b815260206004820152603760248201527f636f6d707574655f62617463685f6f70656e696e675f636f6d6d69746d656e7460448201527f2067726f7570206f7065726174696f6e73206572726f7200000000000000000060648201526084016101d8565b9e9d5050505050505050505050505050565b60c08101516101208301516000917f30644e72e131a029b85045b68181585d2833e84879b9709143e1f593f0000001918391908380828409840892508560e001519150866101400151905083848284098408925085610100015191508661016001519050838482840984089250856101200151915086610180015190508384828409840892508561014001519150866101a0015190508384828409840892508561016001519150866101c0015190508384828409840892508561018001519150866101e001519050838482840984089250856101a0015191508661020001519050838482840984089250856101c0015191508661022001519050838482840984089250856101e0015191508661024001519050838482840984089250866103800151905083818503840892508560c001519150866102800151905060008482840990508660e001519250876102a0015191508485838509820890508661010001519250876102c0015191508485838509820890508661012001519250876102e00151915084858385098208905087610260015192508483820890508660a0015192508483820990508481850898975050505050505050565b60a083015160408051808201909152600080825260208201819052919082907f30644e72e131a029b85045b68181585d2833e84879b9709143e1f593f000000190610320870151610300880151611fd7816133a2565b611fe0826133a2565b6040808b0151908901518582820990508588820990508c86039c506040518e51815260208f015160208201528351604082015260208401516060820152826080820152604080820160606040840160075afa975060408160808360065afa881697508451604082015260208501516060820152816080820152604080820160606040840160075afa8816975060408160808360065afa8816975060016040820152600260608201528d6080820152604080820160606040840160075afa8816975060408660808360065afa881697505050506120cf604051806040016040528060008152602001600081525090565b60405182518152602083015160208201528351604082015260208401516060820152876080820152604080820160606040840160075afa8716965060408260808360065afa871696505060007f30644e72e131a029b85045b68181585d97816a916871ca8d3c208c16d87cfd479050602082015181036020830152896102800151156121ff576103408b01516103608c015161216a826133a2565b612173816133a2565b6040518251815260208301516020820152888b8c09604082015260406060820160608360075afa8a169950815181526020820151602082015260408160608360075afa8a169950875160a0820152602088015160c082015260408860806060840160065afa8a169950845160408201526020850151606082015260408560808360065afa8a1699505050505b866122725760405162461bcd60e51b815260206004820152602b60248201527f706572666f726d5f70616972696e67204731206f7065726174696f6e7320707260448201527f65616d626c65206661696c00000000000000000000000000000000000000000060648201526084016101d8565b611db78561227e613469565b848d6102c0015161353a565b60008060008460800151905060008460400151905060006020866020015160206122b49190614501565b6122be9190614520565b6060880151909150600090806001807f30644e72e131a029b85045b68181585d2833e84879b9709143e1f593f0000001818160058609955081600786099450602460043501965086880197505b8787101561236e5786358a81018701808701848c8a099850848c8909975060208a01358d81018a01868a8201888a860909975086898886840909985050858d8b099950858d8a09985085811086851016851694505050505060408701965061230b565b6020880197505b878710156123b657863582811082169150828b8208905082818801860994508281878901018509935050818987099550818986099450602087019650612375565b806124295760405162461bcd60e51b815260206004820152602e60248201527f7075626c696320696e70757473206172652067726561746572207468616e206360448201527f697263756974206d6f64756c757300000000000000000000000000000000000060648201526084016101d8565b50919c909b509950505050505050505050565b6000806000806000807f30644e72e131a029b85045b68181585d2833e84879b9709143e1f593f000000190506000612479888a600001518461362e565b6102e08a018190529050816000198101820860808a015160608b015191925090819060009081808d88868103820894508887870995508889878b038308860994508887870995508889878b038308860994508887870995508889878b038308860994508f604001519550600089858a0990508960018b03830893508987880997508988890997508987890997508960018b038b848b0908989e50949c50939a509098509496505050505050509295509295909350565b6000806000806000807f30644e72e131a029b85045b68181585d2833e84879b9709143e1f593f00000019050600060019050604051925061020083016040528c83528a6020840152886040840152876060840152806080840152818351820990508060a0840152816020840151820990508060c0840152816040840151820990508060e0840152816060840151820990506125c98161366a565b90508160e08401518209826060850151830991508060608501528260c085015183099050826040850151830991508060408501528260a08501518309905082602085015183099150806020850152826080850151830990508284518309818552915082908f0995508160208401518d0996508160408401518b0994508160608401518b099350505050975097509750979350505050565b6000806126708787878787613725565b9050600061267e8785613841565b9050600061268c88866138de565b905060007f30644e72e131a029b85045b68181585d2833e84879b9709143e1f593f0000001808084860886089c9b505050505050505050505050565b60408051808201909152600080825260208201526060830151604084015160808501516101208801516101a08901517f30644e72e131a029b85045b68181585d2833e84879b9709143e1f593f000000191600091829190848683088581878a8c090894508581878b850908935050505060008b6101400151905060008c6101c00151905084868308858682888c8a60058e09090886099450858682888c8609088509935050505060008b6101600151905060008c6101e00151905084868308858682888c8a60068e09090886099450858682888c8609088509935050505060008b610180015190508384828688888c8a60078e09090808840992505060008960000151905060008a60200151905060008b60a00151905060008e6102600151905060008c9050878588099650878b89878b868b09098a030995508784898688090994508783898a8885098a08089650878486098e5250505060808d01516102608d01516040805180820190915260008082526020820152919350915061284d836133a2565b612856826133a2565b6000604051845181526020850151602082015286604082015260408160608360075afa91508351604082015260208401516060820152856080820152604080820160606040840160075afa8216915060408360808360065afa8216915050806129275760405162461bcd60e51b815260206004820152603d60248201527f636f6d707574655f6772616e645f70726f647563745f6f70656e696e675f736360448201527f616c61722067726f7570206f7065726174696f6e73206661696c75726500000060648201526084016101d8565b509d9c50505050505050505050505050565b6040805180820190915260008082526020820152610200840151610220850151835160208501516040805160a081019091526101808901516102e08a01518493927f30644e72e131a029b85045b68181585d2833e84879b9709143e1f593f000000192600092839190858060048409870382089250505060008d61012001519050809350848885099350848a8509935084868809965084868809965084868809965084828309858a820990508588820990508581860860a08f01519095509050612a02816133a2565b6000604051825181526020830151602082015286604082015260408660608360075afa91505080612a755760405162461bcd60e51b815260206004820152601f60248201527f473120706f696e74206d756c7469706c69636174696f6e206661696c6564210060448201526064016101d8565b5050506101408d0151925082848882099350848a85099350848988098581860860c08f01519095509050612aa8816133a2565b60006040518251815260208301516020820152866040820152604080870160608360075afa91505060408560808760065afa1680612b285760405162461bcd60e51b815260206004820152601f60248201527f473120706f696e74206d756c7469706c69636174696f6e206661696c6564210060448201526064016101d8565b5050506101608d0151925082848882099350848a85096102c08f0151909450600091508581840991505060008e61014001519050858789099750858183099150858883099150858283089150858a83099150858286089450505060008d6102800151905060008e6101200151905085878909975085818703830891508583830991505060008e6102c001519050858183099150858883099150858a83099150858286089450505060008c60e001519050612be1816133a2565b60006040518251815260208301516020820152856040820152604080860160608360075afa91505060408460808660065afa1680612c615760405162461bcd60e51b815260206004820152601f60248201527f473120706f696e74206d756c7469706c69636174696f6e206661696c6564210060448201526064016101d8565b5050506101608c01516101808d01516102408e01519093508390858983099450858b86099450858688890989099750858a84098682820990508689820990508681870895505060008e61010001519050612cba816133a2565b60006040518251815260208301516020820152876040820152604080880160608360075afa91505060408660808860065afa1680612d3a5760405162461bcd60e51b815260206004820152601f60248201527f473120706f696e74206d756c7469706c69636174696f6e206661696c6564210060448201526064016101d8565b505050506101808d01516102408e0151909150818503858380099450858186089450858660028803850886099450858986099450858786099450858b8609945085816001089050858a82099050858282099050858882099050858186086101208f01519095509050612dab816133a2565b60006040518251815260208301516020820152866040820152604080870160608360075afa91505060408560808760065afa1680612e2b5760405162461bcd60e51b815260206004820152601f60248201527f473120706f696e74206d756c7469706c69636174696f6e206661696c6564210060448201526064016101d8565b505050506101208c01516101408d0151848183099350848885099350848a85099350505060008c6101600151905060008d6102400151905084868809965084898309858282099050858882099050858186086101408f01519095509050612e91816133a2565b60006040518251815260208301516020820152866040820152604080870160608360075afa91505060408560808760065afa1680612f115760405162461bcd60e51b815260206004820152601f60248201527f473120706f696e74206d756c7469706c69636174696f6e206661696c6564210060448201526064016101d8565b50505050612f32604051806040016040528060008152602001600081525090565b6101e08b0151879350848a85099350848185089350848688096101608e0151909850612f5d816133a2565b60006040518251815260208301516020820152866040820152604080870160608360075afa91505060408460808760065afa1680612fdd5760405162461bcd60e51b815260206004820152601f60248201527f473120706f696e74206d756c7469706c69636174696f6e206661696c6564210060448201526064016101d8565b5050509590995250929998505050505050505050565b6101208201516101408301516101608401516101808501516102e086015160208601518651600096959493929190877f30644e72e131a029b85045b68181585d2833e84879b9709143e1f593f000000180806004880982038808818260048a0983038a08828360048c0984038c08838460048e098503890884848509858587038208905085600287038608868183099150866003880387089050868183099150868983099150819750868a8a0998508685860991508685880383089150866002880386089050868183099150866003880386089050868183099150868983099150868289089750868a8a0998508684850991508684880383089150866002880385089050868183099150866003880385089050868183099150868983099150868289089750868a8a099850868384099150868388038308915086600288038408905086818309915086600388038408905086818309915050858882099050858188089650505050505080848409909a529a9950505050505050505050565b61028082015161012083015160009182917f30644e72e131a029b85045b68181585d2833e84879b9709143e1f593f000000191839182918291829182918291908880600483098a0383086102a08e01516101408f0151919750925090508880600483098a038308945088858708975088868709935088858609925088838508965088888909995088878a038b0860208d01516101608f0151919b506000935091508960028209925089838b038c089a5089828c099a505088828308915088868a03850893508860048709955088868a03850895508860068708955088848709955088868b08995088818b09995088858a03840892508860048609945088858a03840894508860068608945088838609945088858b08995088818b099950886003890995508860038709945088858608975088600489099350888486089450886003880993508860068509965088888a03830897508860518908975088858a038808945088605386086101608e015190955089818a09985089868a08985089818a096101808f0151909950905089600482096102e08f015190955090508985810382086102408f0151909550905089858008935089848608945089858608935089858508935089878b038508935089818509935089878608945089898a08985089898b038608945089848608945089858c088d51909b50905089818c098d5160208f0151919c509950975089965087955085945050505050099050828182099050828183099095525090949350505050565b805160208201516000917f30644e72e131a029b85045b68181585d97816a916871ca8d3c208c16d87cfd47918260038180858009850908838283091481158315171984831085851016161693505050816134645760405162461bcd60e51b815260206004820152602d60248201527f426e3235343a20473120706f696e74206e6f74206f6e2063757276652c206f7260448201527f206973206d616c666f726d65640000000000000000000000000000000000000060648201526084016101d8565b505050565b6134946040518060800160405280600081526020016000815260200160008152602001600081525090565b60405180608001604052807f198e9393920d483a7260bfb731fb5d25f1aa493335a9e71297e485b7aef312c281526020017f1800deef121f1e76426a00665e5c4479674322d4f75edadd46debd5cd992f6ed81526020017f090689d0585ff075ec9e99ad690c3395bc4b313370b38ef355acdadcd122975b81526020017f12c85ea5db8c6deb4aab71808dcb408fe3d1e7690c43d37b4ce6cc0166fa7daa815250905090565b6000613545856133a2565b61354e836133a2565b6000806040518751815260208801516020820152865160408201526020870151606082015260408701516080820152606087015160a0820152855160c0820152602086015160e08201528451610100820152602085015161012082015260408501516101408201526060850151610160820152602060006101808360085afa9250506000519050816136225760405162461bcd60e51b815260206004820152601560248201527f50616972696e6720636865636b206661696c656421000000000000000000000060448201526064016101d8565b15159695505050505050565b6000600184818581015b8082101561365e578187161561364f578583850993505b85838409925090800190613638565b50919695505050505050565b6000806000807f30644e72e131a029b85045b68181585d2833e84879b9709143e1f593f0000001905060405160208152602080820152602060408201528560608201526002820360808201528160a08201526020600060c08360055afa92505060005192508161371c5760405162461bcd60e51b815260206004820152601b60248201527f706f7720707265636f6d70696c652063616c6c206661696c656421000000000060448201526064016101d8565b50909392505050565b6020840151606085015161026083015160808701516101208501516101408601516101608701516101808801516101a08901516101c08a01516101e08b015160009a8b9a909990987f30644e72e131a029b85045b68181585d2833e84879b9709143e1f593f00000019891979096919590949193909289838c09888801018a838d09898801018b838e098a8801018c8d8284098409925050508a898601820990508a8a820990508a8d82099050808b039d5050505050505050505060008a60000151905060008a905060008a905060008e90508588890986818a098781860988838609925088848a0389088981850993505088818a038d089b505087828c089a5087818709909f5250979e9d5050505050505050505050505050565b6102008101516101608201516101808301518451602086015160009493929190857f30644e72e131a029b85045b68181585d2833e84879b9709143e1f593f00000018087810381898009089150808682600488098303088160028383840909826009830983846007860384870308820890508381840992505050818583838609099250508083850993508083850990995298975050505050505050565b602082015182516101808301516102e08401516102c085015160009493859390927f30644e72e131a029b85045b68181585d2833e84879b9709143e1f593f0000001928592919082850385806004830984089450508486866003880387018860018a0389018a60038b0160018c010909090996508488870995508485878309860388089650848887096102208b01516101208c01516102808d01516101408e01516102c08f0151949a509196509450925090600080808980858a088808925089888b0385089150898283099150898284099250898a858609850991508986870990508960118b038b838508088a03915089858b888c09099050898182089050898b8b8c848608860809925089838d089b50898d8c099a508e610120015197508e6102a0015196508e610140015195508e6102c00151935060008f610280015190508a8b8a8d0387088c898b080993508a818c038a0892508a878c8c89098d030891508a8b8d8d8587098701098e089c508a8e8d099b508f610240015195508f610180015197508f610160015196508a60018c0389088b888d03820893508b8c8e8609820990508b87820990508b818f089d50508a8e8d099b508a8b8d89098c888c09098b038b818f089d50508a8e8d099b508f610140015198508f610160015197508f610180015196508a86888d03600101098b898b098c0393508b8c888f098583010990508b818f089d50508a8e8d099b508f610220015195508a868e099c5050505050505050505050508086600001818152505081935050505092915050565b60405180604001604052806002906020820280368337509192915050565b6040518060e001604052806000815260200160008152602001600081526020016000151581526020016000801916815260200160008152602001613b80613b20565b905290565b8260028101928215613bf2579160200282015b82811115613bf257825182547fffffffffffffffffffffffff00000000000000000000000000000000000000001673ffffffffffffffffffffffffffffffffffffffff909116178255602090920191600190910190613b98565b50613bfe9291506140ad565b5090565b6040518061032001604052806000815260200160008152602001600081526020016000815260200160008152602001613c4e604051806040016040528060008152602001600081525090565b8152602001613c70604051806040016040528060008152602001600081525090565b8152602001613c92604051806040016040528060008152602001600081525090565b8152602001613cb4604051806040016040528060008152602001600081525090565b8152602001613cd6604051806040016040528060008152602001600081525090565b8152602001613cf8604051806040016040528060008152602001600081525090565b8152602001613d1a604051806040016040528060008152602001600081525090565b8152602001613d3c604051806040016040528060008152602001600081525090565b8152602001613d5e604051806040016040528060008152602001600081525090565b8152602001613d80604051806040016040528060008152602001600081525090565b8152602001613da2604051806040016040528060008152602001600081525090565b8152602001613dc4604051806040016040528060008152602001600081525090565b8152602001613de6604051806040016040528060008152602001600081525090565b8152602001613e08604051806040016040528060008152602001600081525090565b8152602001613e2a604051806040016040528060008152602001600081525090565b815260200160001515815260200160008152602001613e6a6040518060800160405280600081526020016000815260200160008152602001600081525090565b815260200160008152602001600081525090565b604080516103e0810190915260006103a082018181526103c083019190915281908152602001613ec1604051806040016040528060008152602001600081525090565b8152602001613ee3604051806040016040528060008152602001600081525090565b8152602001613f05604051806040016040528060008152602001600081525090565b8152602001613f27604051806040016040528060008152602001600081525090565b8152602001613f49604051806040016040528060008152602001600081525090565b8152602001613f6b604051806040016040528060008152602001600081525090565b8152602001613f8d604051806040016040528060008152602001600081525090565b8152602001613faf604051806040016040528060008152602001600081525090565b815260200160008152602001600081526020016000815260200160008152602001600081526020016000815260200160008152602001600081526020016000815260200160008152602001600081526020016000815260200160008152602001600081526020016000815260200161403a604051806040016040528060008152602001600081525090565b815260200161405c604051806040016040528060008152602001600081525090565b815260200161407e604051806040016040528060008152602001600081525090565b81526020016140a0604051806040016040528060008152602001600081525090565b8152602001600081525090565b5b80821115613bfe57600081556001016140ae565b7f4e487b7100000000000000000000000000000000000000000000000000000000600052604160045260246000fd5b604051601f8201601f1916810167ffffffffffffffff8111828210171561411a5761411a6140c2565b604052919050565b6000806040838503121561413557600080fd5b8235915060208084013567ffffffffffffffff8082111561415557600080fd5b818601915086601f83011261416957600080fd5b81358181111561417b5761417b6140c2565b61418d84601f19601f840116016140f1565b915080825287848285010111156141a357600080fd5b80848401858401376000848284010152508093505050509250929050565b6000602082840312156141d357600080fd5b5035919050565b60408101818360005b600281101561421857815173ffffffffffffffffffffffffffffffffffffffff168352602092830192909101906001016141e3565b50505092915050565b6000806000806080858703121561423757600080fd5b5050823594602084013594506040840135936060013592509050565b6000806020838503121561426657600080fd5b823567ffffffffffffffff8082111561427e57600080fd5b818501915085601f83011261429257600080fd5b8135818111156142a157600080fd5b8660208285010111156142b357600080fd5b60209290920196919550909350505050565b6000806000608084860312156142da57600080fd5b8335925060208401359150846080850111156142f557600080fd5b6040840190509250925092565b7f4e487b7100000000000000000000000000000000000000000000000000000000600052603260045260246000fd5b6000602080838503121561434457600080fd5b83601f84011261435357600080fd5b60405181810181811067ffffffffffffffff82111715614375576143756140c2565b604052808483018681111561438957600080fd5b855b8181101561365e578051835291840191840161438b565b7f4e487b7100000000000000000000000000000000000000000000000000000000600052601160045260246000fd5b600082198211156143e4576143e46143a2565b500190565b600060208083528351808285015260005b81811015614416578581018301518582016040015282016143fa565b81811115614428576000604083870101525b50601f01601f1916929092016040019392505050565b60006020828403121561445057600080fd5b8151801515811461446057600080fd5b9392505050565b60006040828403121561447957600080fd5b82601f83011261448857600080fd5b6040516040810181811067ffffffffffffffff821117156144ab576144ab6140c2565b80604052508060408401858111156144c257600080fd5b845b818110156144dc5780518352602092830192016144c4565b509195945050505050565b600060001982036144fa576144fa6143a2565b5060010190565b600081600019048311821515161561451b5761451b6143a2565b500290565b600082821015614532576145326143a2565b50039056fea2646970667358221220b24b839374cc27edbda4c71b2ea3e13330fd7dc7aef20d90e0d645852139d08864736f6c634300080f0033",
    "linkReferences": {}
  },
  "methodIdentifiers": {
    "createLobby(uint256,uint256,address[2])": "a2594703",
    "getPlayers(uint256)": "460e2049",
    "lobbies(uint256)": "6e8fb4c6",
    "move(uint256,uint256,uint256,uint256)": "8dafb2b3",
    "settle(uint256,bytes)": "39c2ebb9",
    "verify(bytes)": "8e760afe"
  },
  "id": 0
}